{
  "contractName": "MyContract",
  "abi": [
    {
      "inputs": [
        {
          "internalType": "address",
          "name": "initialOwner",
          "type": "address"
        }
      ],
      "stateMutability": "nonpayable",
      "type": "constructor"
    },
    {
      "inputs": [
        {
          "internalType": "address",
          "name": "sender",
          "type": "address"
        },
        {
          "internalType": "uint256",
          "name": "tokenId",
          "type": "uint256"
        },
        {
          "internalType": "address",
          "name": "owner",
          "type": "address"
        }
      ],
      "name": "ERC721IncorrectOwner",
      "type": "error"
    },
    {
      "inputs": [
        {
          "internalType": "address",
          "name": "operator",
          "type": "address"
        },
        {
          "internalType": "uint256",
          "name": "tokenId",
          "type": "uint256"
        }
      ],
      "name": "ERC721InsufficientApproval",
      "type": "error"
    },
    {
      "inputs": [
        {
          "internalType": "address",
          "name": "approver",
          "type": "address"
        }
      ],
      "name": "ERC721InvalidApprover",
      "type": "error"
    },
    {
      "inputs": [
        {
          "internalType": "address",
          "name": "operator",
          "type": "address"
        }
      ],
      "name": "ERC721InvalidOperator",
      "type": "error"
    },
    {
      "inputs": [
        {
          "internalType": "address",
          "name": "owner",
          "type": "address"
        }
      ],
      "name": "ERC721InvalidOwner",
      "type": "error"
    },
    {
      "inputs": [
        {
          "internalType": "address",
          "name": "receiver",
          "type": "address"
        }
      ],
      "name": "ERC721InvalidReceiver",
      "type": "error"
    },
    {
      "inputs": [
        {
          "internalType": "address",
          "name": "sender",
          "type": "address"
        }
      ],
      "name": "ERC721InvalidSender",
      "type": "error"
    },
    {
      "inputs": [
        {
          "internalType": "uint256",
          "name": "tokenId",
          "type": "uint256"
        }
      ],
      "name": "ERC721NonexistentToken",
      "type": "error"
    },
    {
      "inputs": [
        {
          "internalType": "address",
          "name": "owner",
          "type": "address"
        }
      ],
      "name": "OwnableInvalidOwner",
      "type": "error"
    },
    {
      "inputs": [
        {
          "internalType": "address",
          "name": "account",
          "type": "address"
        }
      ],
      "name": "OwnableUnauthorizedAccount",
      "type": "error"
    },
    {
      "anonymous": false,
      "inputs": [
        {
          "indexed": true,
          "internalType": "address",
          "name": "owner",
          "type": "address"
        },
        {
          "indexed": true,
          "internalType": "address",
          "name": "approved",
          "type": "address"
        },
        {
          "indexed": true,
          "internalType": "uint256",
          "name": "tokenId",
          "type": "uint256"
        }
      ],
      "name": "Approval",
      "type": "event"
    },
    {
      "anonymous": false,
      "inputs": [
        {
          "indexed": true,
          "internalType": "address",
          "name": "owner",
          "type": "address"
        },
        {
          "indexed": true,
          "internalType": "address",
          "name": "operator",
          "type": "address"
        },
        {
          "indexed": false,
          "internalType": "bool",
          "name": "approved",
          "type": "bool"
        }
      ],
      "name": "ApprovalForAll",
      "type": "event"
    },
    {
      "anonymous": false,
      "inputs": [
        {
          "indexed": false,
          "internalType": "uint256",
          "name": "_fromTokenId",
          "type": "uint256"
        },
        {
          "indexed": false,
          "internalType": "uint256",
          "name": "_toTokenId",
          "type": "uint256"
        }
      ],
      "name": "BatchMetadataUpdate",
      "type": "event"
    },
    {
      "anonymous": false,
      "inputs": [
        {
          "indexed": false,
          "internalType": "uint256",
          "name": "_tokenId",
          "type": "uint256"
        }
      ],
      "name": "MetadataUpdate",
      "type": "event"
    },
    {
      "anonymous": false,
      "inputs": [
        {
          "indexed": true,
          "internalType": "address",
          "name": "previousOwner",
          "type": "address"
        },
        {
          "indexed": true,
          "internalType": "address",
          "name": "newOwner",
          "type": "address"
        }
      ],
      "name": "OwnershipTransferred",
      "type": "event"
    },
    {
      "anonymous": false,
      "inputs": [
        {
          "indexed": true,
          "internalType": "address",
          "name": "from",
          "type": "address"
        },
        {
          "indexed": true,
          "internalType": "address",
          "name": "to",
          "type": "address"
        },
        {
          "indexed": true,
          "internalType": "uint256",
          "name": "tokenId",
          "type": "uint256"
        }
      ],
      "name": "Transfer",
      "type": "event"
    },
    {
      "inputs": [
        {
          "internalType": "address",
          "name": "to",
          "type": "address"
        },
        {
          "internalType": "uint256",
          "name": "tokenId",
          "type": "uint256"
        }
      ],
      "name": "approve",
      "outputs": [],
      "stateMutability": "nonpayable",
      "type": "function"
    },
    {
      "inputs": [
        {
          "internalType": "address",
          "name": "owner",
          "type": "address"
        }
      ],
      "name": "balanceOf",
      "outputs": [
        {
          "internalType": "uint256",
          "name": "",
          "type": "uint256"
        }
      ],
      "stateMutability": "view",
      "type": "function"
    },
    {
      "inputs": [
        {
          "internalType": "uint256",
          "name": "tokenId",
          "type": "uint256"
        }
      ],
      "name": "getApproved",
      "outputs": [
        {
          "internalType": "address",
          "name": "",
          "type": "address"
        }
      ],
      "stateMutability": "view",
      "type": "function"
    },
    {
      "inputs": [
        {
          "internalType": "address",
          "name": "owner",
          "type": "address"
        },
        {
          "internalType": "address",
          "name": "operator",
          "type": "address"
        }
      ],
      "name": "isApprovedForAll",
      "outputs": [
        {
          "internalType": "bool",
          "name": "",
          "type": "bool"
        }
      ],
      "stateMutability": "view",
      "type": "function"
    },
    {
      "inputs": [],
      "name": "name",
      "outputs": [
        {
          "internalType": "string",
          "name": "",
          "type": "string"
        }
      ],
      "stateMutability": "view",
      "type": "function"
    },
    {
      "inputs": [],
      "name": "owner",
      "outputs": [
        {
          "internalType": "address",
          "name": "",
          "type": "address"
        }
      ],
      "stateMutability": "view",
      "type": "function"
    },
    {
      "inputs": [
        {
          "internalType": "uint256",
          "name": "tokenId",
          "type": "uint256"
        }
      ],
      "name": "ownerOf",
      "outputs": [
        {
          "internalType": "address",
          "name": "",
          "type": "address"
        }
      ],
      "stateMutability": "view",
      "type": "function"
    },
    {
      "inputs": [],
      "name": "renounceOwnership",
      "outputs": [],
      "stateMutability": "nonpayable",
      "type": "function"
    },
    {
      "inputs": [
        {
          "internalType": "address",
          "name": "from",
          "type": "address"
        },
        {
          "internalType": "address",
          "name": "to",
          "type": "address"
        },
        {
          "internalType": "uint256",
          "name": "tokenId",
          "type": "uint256"
        }
      ],
      "name": "safeTransferFrom",
      "outputs": [],
      "stateMutability": "nonpayable",
      "type": "function"
    },
    {
      "inputs": [
        {
          "internalType": "address",
          "name": "from",
          "type": "address"
        },
        {
          "internalType": "address",
          "name": "to",
          "type": "address"
        },
        {
          "internalType": "uint256",
          "name": "tokenId",
          "type": "uint256"
        },
        {
          "internalType": "bytes",
          "name": "data",
          "type": "bytes"
        }
      ],
      "name": "safeTransferFrom",
      "outputs": [],
      "stateMutability": "nonpayable",
      "type": "function"
    },
    {
      "inputs": [
        {
          "internalType": "address",
          "name": "operator",
          "type": "address"
        },
        {
          "internalType": "bool",
          "name": "approved",
          "type": "bool"
        }
      ],
      "name": "setApprovalForAll",
      "outputs": [],
      "stateMutability": "nonpayable",
      "type": "function"
    },
    {
      "inputs": [],
      "name": "symbol",
      "outputs": [
        {
          "internalType": "string",
          "name": "",
          "type": "string"
        }
      ],
      "stateMutability": "view",
      "type": "function"
    },
    {
      "inputs": [
        {
          "internalType": "address",
          "name": "from",
          "type": "address"
        },
        {
          "internalType": "address",
          "name": "to",
          "type": "address"
        },
        {
          "internalType": "uint256",
          "name": "tokenId",
          "type": "uint256"
        }
      ],
      "name": "transferFrom",
      "outputs": [],
      "stateMutability": "nonpayable",
      "type": "function"
    },
    {
      "inputs": [
        {
          "internalType": "address",
          "name": "newOwner",
          "type": "address"
        }
      ],
      "name": "transferOwnership",
      "outputs": [],
      "stateMutability": "nonpayable",
      "type": "function"
    },
    {
      "inputs": [
        {
          "internalType": "address",
          "name": "to",
          "type": "address"
        },
        {
          "internalType": "uint256",
          "name": "tokenId",
          "type": "uint256"
        }
      ],
      "name": "mintAsset",
      "outputs": [],
      "stateMutability": "nonpayable",
      "type": "function"
    },
    {
      "inputs": [
        {
          "internalType": "address",
          "name": "to",
          "type": "address"
        },
        {
          "internalType": "uint256",
          "name": "tokenId",
          "type": "uint256"
        }
      ],
      "name": "transferAsset",
      "outputs": [],
      "stateMutability": "nonpayable",
      "type": "function"
    },
    {
      "inputs": [
        {
          "internalType": "uint256",
          "name": "tokenId",
          "type": "uint256"
        }
      ],
      "name": "tokenURI",
      "outputs": [
        {
          "internalType": "string",
          "name": "",
          "type": "string"
        }
      ],
      "stateMutability": "view",
      "type": "function"
    },
    {
      "inputs": [
        {
          "internalType": "bytes4",
          "name": "interfaceId",
          "type": "bytes4"
        }
      ],
      "name": "supportsInterface",
      "outputs": [
        {
          "internalType": "bool",
          "name": "",
          "type": "bool"
        }
      ],
      "stateMutability": "view",
      "type": "function"
    }
  ],
  "bytecode": "0x608060405234801561000f575f5ffd5b50604051612c3f380380612c3f83398181016040528101906100319190610266565b806040518060400160405280600781526020017f4d79546f6b656e000000000000000000000000000000000000000000000000008152506040518060400160405280600381526020017f4d544b0000000000000000000000000000000000000000000000000000000000815250815f90816100ac91906104ce565b5080600190816100bc91906104ce565b5050505f73ffffffffffffffffffffffffffffffffffffffff168173ffffffffffffffffffffffffffffffffffffffff160361012f575f6040517f1e4fbdf700000000000000000000000000000000000000000000000000000000815260040161012691906105ac565b60405180910390fd5b61013e8161014560201b60201c565b50506105c5565b5f60075f9054906101000a900473ffffffffffffffffffffffffffffffffffffffff1690508160075f6101000a81548173ffffffffffffffffffffffffffffffffffffffff021916908373ffffffffffffffffffffffffffffffffffffffff1602179055508173ffffffffffffffffffffffffffffffffffffffff168173ffffffffffffffffffffffffffffffffffffffff167f8be0079c531659141344cd1fd0a4f28419497f9722a3daafe3b4186f6b6457e060405160405180910390a35050565b5f5ffd5b5f73ffffffffffffffffffffffffffffffffffffffff82169050919050565b5f6102358261020c565b9050919050565b6102458161022b565b811461024f575f5ffd5b50565b5f815190506102608161023c565b92915050565b5f6020828403121561027b5761027a610208565b5b5f61028884828501610252565b91505092915050565b5f81519050919050565b7f4e487b71000000000000000000000000000000000000000000000000000000005f52604160045260245ffd5b7f4e487b71000000000000000000000000000000000000000000000000000000005f52602260045260245ffd5b5f600282049050600182168061030c57607f821691505b60208210810361031f5761031e6102c8565b5b50919050565b5f819050815f5260205f209050919050565b5f6020601f8301049050919050565b5f82821b905092915050565b5f600883026103817fffffffffffffffffffffffffffffffffffffffffffffffffffffffffffffffff82610346565b61038b8683610346565b95508019841693508086168417925050509392505050565b5f819050919050565b5f819050919050565b5f6103cf6103ca6103c5846103a3565b6103ac565b6103a3565b9050919050565b5f819050919050565b6103e8836103b5565b6103fc6103f4826103d6565b848454610352565b825550505050565b5f5f905090565b610413610404565b61041e8184846103df565b505050565b5b81811015610441576104365f8261040b565b600181019050610424565b5050565b601f8211156104865761045781610325565b61046084610337565b8101602085101561046f578190505b61048361047b85610337565b830182610423565b50505b505050565b5f82821c905092915050565b5f6104a65f198460080261048b565b1980831691505092915050565b5f6104be8383610497565b9150826002028217905092915050565b6104d782610291565b67ffffffffffffffff8111156104f0576104ef61029b565b5b6104fa82546102f5565b610505828285610445565b5f60209050601f831160018114610536575f8415610524578287015190505b61052e85826104b3565b865550610595565b601f19841661054486610325565b5f5b8281101561056b57848901518255600182019150602085019450602081019050610546565b868310156105885784890151610584601f891682610497565b8355505b6001600288020188555050505b505050505050565b6105a68161022b565b82525050565b5f6020820190506105bf5f83018461059d565b92915050565b61266d806105d25f395ff3fe608060405234801561000f575f5ffd5b5060043610610114575f3560e01c806370a08231116100a0578063a22cb4651161006f578063a22cb465146102c8578063b88d4fde146102e4578063c87b56dd14610300578063e985e9c514610330578063f2fde38b1461036057610114565b806370a0823114610252578063715018a6146102825780638da5cb5b1461028c57806395d89b41146102aa57610114565b806323b872dd116100e757806323b872dd146101b257806342842e0e146101ce5780635c921eb9146101ea5780635f758bef146102065780636352211e1461022257610114565b806301ffc9a71461011857806306fdde0314610148578063081812fc14610166578063095ea7b314610196575b5f5ffd5b610132600480360381019061012d9190611c28565b61037c565b60405161013f9190611c6d565b60405180910390f35b61015061038d565b60405161015d9190611cf6565b60405180910390f35b610180600480360381019061017b9190611d49565b61041c565b60405161018d9190611db3565b60405180910390f35b6101b060048036038101906101ab9190611df6565b610437565b005b6101cc60048036038101906101c79190611e34565b61044d565b005b6101e860048036038101906101e39190611e34565b61054c565b005b61020460048036038101906101ff9190611df6565b61056b565b005b610220600480360381019061021b9190611df6565b610582565b005b61023c60048036038101906102379190611d49565b6105c9565b6040516102499190611db3565b60405180910390f35b61026c60048036038101906102679190611e84565b6105da565b6040516102799190611ebe565b60405180910390f35b61028a610690565b005b6102946106a3565b6040516102a19190611db3565b60405180910390f35b6102b26106cb565b6040516102bf9190611cf6565b60405180910390f35b6102e260048036038101906102dd9190611f01565b61075b565b005b6102fe60048036038101906102f9919061206b565b610771565b005b61031a60048036038101906103159190611d49565b610796565b6040516103279190611cf6565b60405180910390f35b61034a600480360381019061034591906120eb565b6107a8565b6040516103579190611c6d565b60405180910390f35b61037a60048036038101906103759190611e84565b610836565b005b5f610386826108ba565b9050919050565b60605f805461039b90612156565b80601f01602080910402602001604051908101604052809291908181526020018280546103c790612156565b80156104125780601f106103e957610100808354040283529160200191610412565b820191905f5260205f20905b8154815290600101906020018083116103f557829003601f168201915b5050505050905090565b5f6104268261091a565b50610430826109a0565b9050919050565b61044982826104446109d9565b6109e0565b5050565b5f73ffffffffffffffffffffffffffffffffffffffff168273ffffffffffffffffffffffffffffffffffffffff16036104bd575f6040517f64a0ae920000000000000000000000000000000000000000000000000000000081526004016104b49190611db3565b60405180910390fd5b5f6104d083836104cb6109d9565b6109f2565b90508373ffffffffffffffffffffffffffffffffffffffff168173ffffffffffffffffffffffffffffffffffffffff1614610546578382826040517f64283d7b00000000000000000000000000000000000000000000000000000000815260040161053d93929190612186565b60405180910390fd5b50505050565b61056683838360405180602001604052805f815250610771565b505050565b61057e610577826105c9565b8383610bfd565b5050565b61058a610d65565b6105948282610dec565b6105c5816105a183610e09565b6040516020016105b1919061221b565b604051602081830303815290604052610ed3565b5050565b5f6105d38261091a565b9050919050565b5f5f73ffffffffffffffffffffffffffffffffffffffff168273ffffffffffffffffffffffffffffffffffffffff160361064b575f6040517f89c62b640000000000000000000000000000000000000000000000000000000081526004016106429190611db3565b60405180910390fd5b60035f8373ffffffffffffffffffffffffffffffffffffffff1673ffffffffffffffffffffffffffffffffffffffff1681526020019081526020015f20549050919050565b610698610d65565b6106a15f610f2d565b565b5f60075f9054906101000a900473ffffffffffffffffffffffffffffffffffffffff16905090565b6060600180546106da90612156565b80601f016020809104026020016040519081016040528092919081815260200182805461070690612156565b80156107515780601f1061072857610100808354040283529160200191610751565b820191905f5260205f20905b81548152906001019060200180831161073457829003601f168201915b5050505050905090565b61076d6107666109d9565b8383610ff0565b5050565b61077c84848461044d565b6107906107876109d9565b85858585611159565b50505050565b60606107a182611305565b9050919050565b5f60055f8473ffffffffffffffffffffffffffffffffffffffff1673ffffffffffffffffffffffffffffffffffffffff1681526020019081526020015f205f8373ffffffffffffffffffffffffffffffffffffffff1673ffffffffffffffffffffffffffffffffffffffff1681526020019081526020015f205f9054906101000a900460ff16905092915050565b61083e610d65565b5f73ffffffffffffffffffffffffffffffffffffffff168173ffffffffffffffffffffffffffffffffffffffff16036108ae575f6040517f1e4fbdf70000000000000000000000000000000000000000000000000000000081526004016108a59190611db3565b60405180910390fd5b6108b781610f2d565b50565b5f634906490660e01b7bffffffffffffffffffffffffffffffffffffffffffffffffffffffff1916827bffffffffffffffffffffffffffffffffffffffffffffffffffffffff19161480610913575061091282611410565b5b9050919050565b5f5f610925836114f1565b90505f73ffffffffffffffffffffffffffffffffffffffff168173ffffffffffffffffffffffffffffffffffffffff160361099757826040517f7e27328900000000000000000000000000000000000000000000000000000000815260040161098e9190611ebe565b60405180910390fd5b80915050919050565b5f60045f8381526020019081526020015f205f9054906101000a900473ffffffffffffffffffffffffffffffffffffffff169050919050565b5f33905090565b6109ed838383600161152a565b505050565b5f5f6109fd846114f1565b90505f73ffffffffffffffffffffffffffffffffffffffff168373ffffffffffffffffffffffffffffffffffffffff1614610a3e57610a3d8184866116e9565b5b5f73ffffffffffffffffffffffffffffffffffffffff168173ffffffffffffffffffffffffffffffffffffffff1614610ac957610a7d5f855f5f61152a565b600160035f8373ffffffffffffffffffffffffffffffffffffffff1673ffffffffffffffffffffffffffffffffffffffff1681526020019081526020015f205f82825403925050819055505b5f73ffffffffffffffffffffffffffffffffffffffff168573ffffffffffffffffffffffffffffffffffffffff1614610b4857600160035f8773ffffffffffffffffffffffffffffffffffffffff1673ffffffffffffffffffffffffffffffffffffffff1681526020019081526020015f205f82825401925050819055505b8460025f8681526020019081526020015f205f6101000a81548173ffffffffffffffffffffffffffffffffffffffff021916908373ffffffffffffffffffffffffffffffffffffffff160217905550838573ffffffffffffffffffffffffffffffffffffffff168273ffffffffffffffffffffffffffffffffffffffff167fddf252ad1be2c89b69c2b068fc378daa952ba7f163c4a11628f55a4df523b3ef60405160405180910390a4809150509392505050565b5f73ffffffffffffffffffffffffffffffffffffffff168273ffffffffffffffffffffffffffffffffffffffff1603610c6d575f6040517f64a0ae92000000000000000000000000000000000000000000000000000000008152600401610c649190611db3565b60405180910390fd5b5f610c7983835f6109f2565b90505f73ffffffffffffffffffffffffffffffffffffffff168173ffffffffffffffffffffffffffffffffffffffff1603610ceb57816040517f7e273289000000000000000000000000000000000000000000000000000000008152600401610ce29190611ebe565b60405180910390fd5b8373ffffffffffffffffffffffffffffffffffffffff168173ffffffffffffffffffffffffffffffffffffffff1614610d5f578382826040517f64283d7b000000000000000000000000000000000000000000000000000000008152600401610d5693929190612186565b60405180910390fd5b50505050565b610d6d6109d9565b73ffffffffffffffffffffffffffffffffffffffff16610d8b6106a3565b73ffffffffffffffffffffffffffffffffffffffff1614610dea57610dae6109d9565b6040517f118cdaa7000000000000000000000000000000000000000000000000000000008152600401610de19190611db3565b60405180910390fd5b565b610e05828260405180602001604052805f8152506117ac565b5050565b60605f6001610e17846117cf565b0190505f8167ffffffffffffffff811115610e3557610e34611f47565b5b6040519080825280601f01601f191660200182016040528015610e675781602001600182028036833780820191505090505b5090505f82602001820190505b600115610ec8578080600190039150507f3031323334353637383961626364656600000000000000000000000000000000600a86061a8153600a8581610ebd57610ebc612240565b5b0494505f8503610e74575b819350505050919050565b8060065f8481526020019081526020015f209081610ef1919061240d565b507ff8e1a15aba9398e019f0b49df1a4fde98ee17ae345cb5f6b5e2c27f5033e8ce782604051610f219190611ebe565b60405180910390a15050565b5f60075f9054906101000a900473ffffffffffffffffffffffffffffffffffffffff1690508160075f6101000a81548173ffffffffffffffffffffffffffffffffffffffff021916908373ffffffffffffffffffffffffffffffffffffffff1602179055508173ffffffffffffffffffffffffffffffffffffffff168173ffffffffffffffffffffffffffffffffffffffff167f8be0079c531659141344cd1fd0a4f28419497f9722a3daafe3b4186f6b6457e060405160405180910390a35050565b5f73ffffffffffffffffffffffffffffffffffffffff168273ffffffffffffffffffffffffffffffffffffffff160361106057816040517f5b08ba180000000000000000000000000000000000000000000000000000000081526004016110579190611db3565b60405180910390fd5b8060055f8573ffffffffffffffffffffffffffffffffffffffff1673ffffffffffffffffffffffffffffffffffffffff1681526020019081526020015f205f8473ffffffffffffffffffffffffffffffffffffffff1673ffffffffffffffffffffffffffffffffffffffff1681526020019081526020015f205f6101000a81548160ff0219169083151502179055508173ffffffffffffffffffffffffffffffffffffffff168373ffffffffffffffffffffffffffffffffffffffff167f17307eab39ab6107e8899845ad3d59bd9653f200f220920489ca2b5937696c318360405161114c9190611c6d565b60405180910390a3505050565b5f8373ffffffffffffffffffffffffffffffffffffffff163b11156112fe578273ffffffffffffffffffffffffffffffffffffffff1663150b7a02868685856040518563ffffffff1660e01b81526004016111b7949392919061252e565b6020604051808303815f875af19250505080156111f257506040513d601f19601f820116820180604052508101906111ef919061258c565b60015b611273573d805f8114611220576040519150601f19603f3d011682016040523d82523d5f602084013e611225565b606091505b505f81510361126b57836040517f64a0ae920000000000000000000000000000000000000000000000000000000081526004016112629190611db3565b60405180910390fd5b805181602001fd5b63150b7a0260e01b7bffffffffffffffffffffffffffffffffffffffffffffffffffffffff1916817bffffffffffffffffffffffffffffffffffffffffffffffffffffffff1916146112fc57836040517f64a0ae920000000000000000000000000000000000000000000000000000000081526004016112f39190611db3565b60405180910390fd5b505b5050505050565b60606113108261091a565b505f60065f8481526020019081526020015f20805461132e90612156565b80601f016020809104026020016040519081016040528092919081815260200182805461135a90612156565b80156113a55780601f1061137c576101008083540402835291602001916113a5565b820191905f5260205f20905b81548152906001019060200180831161138857829003601f168201915b505050505090505f6113b5611920565b90505f8151036113c957819250505061140b565b5f825111156113fd5780826040516020016113e59291906125b7565b6040516020818303038152906040529250505061140b565b61140684611940565b925050505b919050565b5f7f80ac58cd000000000000000000000000000000000000000000000000000000007bffffffffffffffffffffffffffffffffffffffffffffffffffffffff1916827bffffffffffffffffffffffffffffffffffffffffffffffffffffffff191614806114da57507f5b5e139f000000000000000000000000000000000000000000000000000000007bffffffffffffffffffffffffffffffffffffffffffffffffffffffff1916827bffffffffffffffffffffffffffffffffffffffffffffffffffffffff1916145b806114ea57506114e9826119a6565b5b9050919050565b5f60025f8381526020019081526020015f205f9054906101000a900473ffffffffffffffffffffffffffffffffffffffff169050919050565b808061156257505f73ffffffffffffffffffffffffffffffffffffffff168273ffffffffffffffffffffffffffffffffffffffff1614155b15611694575f6115718461091a565b90505f73ffffffffffffffffffffffffffffffffffffffff168373ffffffffffffffffffffffffffffffffffffffff16141580156115db57508273ffffffffffffffffffffffffffffffffffffffff168173ffffffffffffffffffffffffffffffffffffffff1614155b80156115ee57506115ec81846107a8565b155b1561163057826040517fa9fbf51f0000000000000000000000000000000000000000000000000000000081526004016116279190611db3565b60405180910390fd5b811561169257838573ffffffffffffffffffffffffffffffffffffffff168273ffffffffffffffffffffffffffffffffffffffff167f8c5be1e5ebec7d5bd14f71427d1e84f3dd0314c0f7b2291e5b200ac8c7c3b92560405160405180910390a45b505b8360045f8581526020019081526020015f205f6101000a81548173ffffffffffffffffffffffffffffffffffffffff021916908373ffffffffffffffffffffffffffffffffffffffff16021790555050505050565b6116f4838383611a0f565b6117a7575f73ffffffffffffffffffffffffffffffffffffffff168373ffffffffffffffffffffffffffffffffffffffff160361176857806040517f7e27328900000000000000000000000000000000000000000000000000000000815260040161175f9190611ebe565b60405180910390fd5b81816040517f177e802f00000000000000000000000000000000000000000000000000000000815260040161179e9291906125da565b60405180910390fd5b505050565b6117b68383611acf565b6117ca6117c16109d9565b5f858585611159565b505050565b5f5f5f90507a184f03e93ff9f4daa797ed6e38ed64bf6a1f010000000000000000831061182b577a184f03e93ff9f4daa797ed6e38ed64bf6a1f010000000000000000838161182157611820612240565b5b0492506040810190505b6d04ee2d6d415b85acef81000000008310611868576d04ee2d6d415b85acef8100000000838161185e5761185d612240565b5b0492506020810190505b662386f26fc10000831061189757662386f26fc10000838161188d5761188c612240565b5b0492506010810190505b6305f5e10083106118c0576305f5e10083816118b6576118b5612240565b5b0492506008810190505b61271083106118e55761271083816118db576118da612240565b5b0492506004810190505b6064831061190857606483816118fe576118fd612240565b5b0492506002810190505b600a8310611917576001810190505b80915050919050565b606060405180606001604052806036815260200161260260369139905090565b606061194b8261091a565b505f611955611920565b90505f8151116119735760405180602001604052805f81525061199e565b8061197d84610e09565b60405160200161198e9291906125b7565b6040516020818303038152906040525b915050919050565b5f7f01ffc9a7000000000000000000000000000000000000000000000000000000007bffffffffffffffffffffffffffffffffffffffffffffffffffffffff1916827bffffffffffffffffffffffffffffffffffffffffffffffffffffffff1916149050919050565b5f5f73ffffffffffffffffffffffffffffffffffffffff168373ffffffffffffffffffffffffffffffffffffffff1614158015611ac657508273ffffffffffffffffffffffffffffffffffffffff168473ffffffffffffffffffffffffffffffffffffffff161480611a875750611a8684846107a8565b5b80611ac557508273ffffffffffffffffffffffffffffffffffffffff16611aad836109a0565b73ffffffffffffffffffffffffffffffffffffffff16145b5b90509392505050565b5f73ffffffffffffffffffffffffffffffffffffffff168273ffffffffffffffffffffffffffffffffffffffff1603611b3f575f6040517f64a0ae92000000000000000000000000000000000000000000000000000000008152600401611b369190611db3565b60405180910390fd5b5f611b4b83835f6109f2565b90505f73ffffffffffffffffffffffffffffffffffffffff168173ffffffffffffffffffffffffffffffffffffffff1614611bbd575f6040517f73c6ac6e000000000000000000000000000000000000000000000000000000008152600401611bb49190611db3565b60405180910390fd5b505050565b5f604051905090565b5f5ffd5b5f5ffd5b5f7fffffffff0000000000000000000000000000000000000000000000000000000082169050919050565b611c0781611bd3565b8114611c11575f5ffd5b50565b5f81359050611c2281611bfe565b92915050565b5f60208284031215611c3d57611c3c611bcb565b5b5f611c4a84828501611c14565b91505092915050565b5f8115159050919050565b611c6781611c53565b82525050565b5f602082019050611c805f830184611c5e565b92915050565b5f81519050919050565b5f82825260208201905092915050565b8281835e5f83830152505050565b5f601f19601f8301169050919050565b5f611cc882611c86565b611cd28185611c90565b9350611ce2818560208601611ca0565b611ceb81611cae565b840191505092915050565b5f6020820190508181035f830152611d0e8184611cbe565b905092915050565b5f819050919050565b611d2881611d16565b8114611d32575f5ffd5b50565b5f81359050611d4381611d1f565b92915050565b5f60208284031215611d5e57611d5d611bcb565b5b5f611d6b84828501611d35565b91505092915050565b5f73ffffffffffffffffffffffffffffffffffffffff82169050919050565b5f611d9d82611d74565b9050919050565b611dad81611d93565b82525050565b5f602082019050611dc65f830184611da4565b92915050565b611dd581611d93565b8114611ddf575f5ffd5b50565b5f81359050611df081611dcc565b92915050565b5f5f60408385031215611e0c57611e0b611bcb565b5b5f611e1985828601611de2565b9250506020611e2a85828601611d35565b9150509250929050565b5f5f5f60608486031215611e4b57611e4a611bcb565b5b5f611e5886828701611de2565b9350506020611e6986828701611de2565b9250506040611e7a86828701611d35565b9150509250925092565b5f60208284031215611e9957611e98611bcb565b5b5f611ea684828501611de2565b91505092915050565b611eb881611d16565b82525050565b5f602082019050611ed15f830184611eaf565b92915050565b611ee081611c53565b8114611eea575f5ffd5b50565b5f81359050611efb81611ed7565b92915050565b5f5f60408385031215611f1757611f16611bcb565b5b5f611f2485828601611de2565b9250506020611f3585828601611eed565b9150509250929050565b5f5ffd5b5f5ffd5b7f4e487b71000000000000000000000000000000000000000000000000000000005f52604160045260245ffd5b611f7d82611cae565b810181811067ffffffffffffffff82111715611f9c57611f9b611f47565b5b80604052505050565b5f611fae611bc2565b9050611fba8282611f74565b919050565b5f67ffffffffffffffff821115611fd957611fd8611f47565b5b611fe282611cae565b9050602081019050919050565b828183375f83830152505050565b5f61200f61200a84611fbf565b611fa5565b90508281526020810184848401111561202b5761202a611f43565b5b612036848285611fef565b509392505050565b5f82601f83011261205257612051611f3f565b5b8135612062848260208601611ffd565b91505092915050565b5f5f5f5f6080858703121561208357612082611bcb565b5b5f61209087828801611de2565b94505060206120a187828801611de2565b93505060406120b287828801611d35565b925050606085013567ffffffffffffffff8111156120d3576120d2611bcf565b5b6120df8782880161203e565b91505092959194509250565b5f5f6040838503121561210157612100611bcb565b5b5f61210e85828601611de2565b925050602061211f85828601611de2565b9150509250929050565b7f4e487b71000000000000000000000000000000000000000000000000000000005f52602260045260245ffd5b5f600282049050600182168061216d57607f821691505b6020821081036121805761217f612129565b5b50919050565b5f6060820190506121995f830186611da4565b6121a66020830185611eaf565b6121b36040830184611da4565b949350505050565b5f81905092915050565b5f6121cf82611c86565b6121d981856121bb565b93506121e9818560208601611ca0565b80840191505092915050565b7f2e6a736f6e000000000000000000000000000000000000000000000000000000815250565b5f61222682846121c5565b9150612231826121f5565b60058201915081905092915050565b7f4e487b71000000000000000000000000000000000000000000000000000000005f52601260045260245ffd5b5f819050815f5260205f209050919050565b5f6020601f8301049050919050565b5f82821b905092915050565b5f600883026122c97fffffffffffffffffffffffffffffffffffffffffffffffffffffffffffffffff8261228e565b6122d3868361228e565b95508019841693508086168417925050509392505050565b5f819050919050565b5f61230e61230961230484611d16565b6122eb565b611d16565b9050919050565b5f819050919050565b612327836122f4565b61233b61233382612315565b84845461229a565b825550505050565b5f5f905090565b612352612343565b61235d81848461231e565b505050565b5b81811015612380576123755f8261234a565b600181019050612363565b5050565b601f8211156123c5576123968161226d565b61239f8461227f565b810160208510156123ae578190505b6123c26123ba8561227f565b830182612362565b50505b505050565b5f82821c905092915050565b5f6123e55f19846008026123ca565b1980831691505092915050565b5f6123fd83836123d6565b9150826002028217905092915050565b61241682611c86565b67ffffffffffffffff81111561242f5761242e611f47565b5b6124398254612156565b612444828285612384565b5f60209050601f831160018114612475575f8415612463578287015190505b61246d85826123f2565b8655506124d4565b601f1984166124838661226d565b5f5b828110156124aa57848901518255600182019150602085019450602081019050612485565b868310156124c757848901516124c3601f8916826123d6565b8355505b6001600288020188555050505b505050505050565b5f81519050919050565b5f82825260208201905092915050565b5f612500826124dc565b61250a81856124e6565b935061251a818560208601611ca0565b61252381611cae565b840191505092915050565b5f6080820190506125415f830187611da4565b61254e6020830186611da4565b61255b6040830185611eaf565b818103606083015261256d81846124f6565b905095945050505050565b5f8151905061258681611bfe565b92915050565b5f602082840312156125a1576125a0611bcb565b5b5f6125ae84828501612578565b91505092915050565b5f6125c282856121c5565b91506125ce82846121c5565b91508190509392505050565b5f6040820190506125ed5f830185611da4565b6125fa6020830184611eaf565b939250505056fe697066733a2f2f516d5a62574e4b4a50416a7858754e465345616b73434a5664314d3644614b5156694a4259504b324264704445502fa264697066735822122028158ebda562d178d643283f3d27f23d64082d9724ab6faa64e40aabe39e777464736f6c634300081e0033",
  "immutableReferences": {},
  "source": "// SPDX-License-Identifier: MIT\n// Compatible with OpenZeppelin Contracts ^5.0.0\npragma solidity ^0.8.30;\n\nimport {ERC721} from \"@openzeppelin/contracts/token/ERC721/ERC721.sol\";\nimport {ERC721URIStorage} from \"@openzeppelin/contracts/token/ERC721/extensions/ERC721URIStorage.sol\";\nimport {Ownable} from \"@openzeppelin/contracts/access/Ownable.sol\";\nimport {Strings} from \"@openzeppelin/contracts/utils/Strings.sol\";\n/**\n * @title MyContract\n * @dev An ERC721 compliant contract with custom minting and transfer functions,\n * and basic ownership control.\n */\ncontract MyContract is ERC721, ERC721URIStorage, Ownable {\n    // Constructor: Initializes the ERC721 token with a name and symbol,\n    // and sets the initial owner.\n    constructor(address initialOwner)\n        ERC721(\"MyToken\", \"MTK\")\n        Ownable(initialOwner)\n    {}\n\n    // _baseURI: Internal function to define the base URI for token metadata.\n    // This URI will be prepended to the token-specific URIs.\n    function _baseURI() internal pure override returns (string memory) {\n        return \"ipfs://QmZbWNKJPAjxXuNFSEaksCJVd1M6DaKQViJBYPK2BdpDEP/\";\n    }\n\n    /**\n     * @notice Mints a new ERC721 token and assigns it to the recipient address.\n     * This function can only be called by the contract owner.\n     * The token URI is set to the base URI concatenated with the token ID.\n     * @param to The address of the recipient of the new token.\n     * @param tokenId The unique identifier for the new token.\n     */\n    function mintAsset(address to, uint256 tokenId) public onlyOwner {\n        // _safeMint ensures that the 'to' address can receive ERC721 tokens,\n        // preventing accidental token loss.\n        _safeMint(to, tokenId);\n        // _setTokenURI appends the tokenId to the base URI to form the full URI.\n        // This assumes a simple URI structure where the tokenId forms the last part.\n        _setTokenURI(tokenId, string.concat(Strings.toString(tokenId), \".json\"));\n    }\n\n    /**\n     * @notice Transfers a specific token from the caller's address to another address.\n     * This function can only be called by the current owner of the token\n     * or an approved address. It uses the standard ERC721 `_transfer` internal function.\n     * @param to The address of the recipient of the token.\n     * @param tokenId The unique identifier of the token to be transferred.\n     */\n    function transferAsset(address to, uint256 tokenId) public {\n        // Require that the caller is either the owner of the token or an approved operator.\n        // This check is implicitly handled by _transfer if the caller is not the owner\n        // but an approved operator.\n        // The ERC721 standard mandates that the sender must be the owner or an approved operator.\n        // `_transfer` handles burning from and minting to, updating balances and ownership.\n        _transfer(ERC721.ownerOf(tokenId), to, tokenId);\n        // Note: The Transfer event is emitted automatically by the _transfer function.\n    }\n\n    // The following functions are overrides required by Solidity for multiple inheritance.\n\n    /**\n     * @dev See {ERC721-tokenURI}.\n     * Returns the full URI for a given token, combining the base URI and the token-specific URI.\n     */\n    function tokenURI(uint256 tokenId)\n        public\n        view\n        override(ERC721, ERC721URIStorage)\n        returns (string memory)\n    {\n        return super.tokenURI(tokenId);\n    }\n\n    /**\n     * @dev See {IERC165-supportsInterface}.\n     * Returns whether this contract implements a given interface.\n     */\n    function supportsInterface(bytes4 interfaceId)\n        public\n        view\n        override(ERC721, ERC721URIStorage)\n        returns (bool)\n    {\n        return super.supportsInterface(interfaceId);\n    }\n}",
  "sourcePath": "/Users/payel/Documents/my_github/BlockChain/truffle/contracts/MyContract.sol",
  "compiler": {
    "name": "solc",
    "version": "0.8.30+commit.73712a01.Emscripten.clang"
  },
  "schemaVersion": "3.4.16",
  "updatedAt": "2025-06-25T04:43:26.869Z",
  "devdoc": {
    "details": "An ERC721 compliant contract with custom minting and transfer functions, and basic ownership control.",
    "errors": {
      "ERC721IncorrectOwner(address,uint256,address)": [
        {
          "details": "Indicates an error related to the ownership over a particular token. Used in transfers.",
          "params": {
            "owner": "Address of the current owner of a token.",
            "sender": "Address whose tokens are being transferred.",
            "tokenId": "Identifier number of a token."
          }
        }
      ],
      "ERC721InsufficientApproval(address,uint256)": [
        {
          "details": "Indicates a failure with the `operator`s approval. Used in transfers.",
          "params": {
            "operator": "Address that may be allowed to operate on tokens without being their owner.",
            "tokenId": "Identifier number of a token."
          }
        }
      ],
      "ERC721InvalidApprover(address)": [
        {
          "details": "Indicates a failure with the `approver` of a token to be approved. Used in approvals.",
          "params": {
            "approver": "Address initiating an approval operation."
          }
        }
      ],
      "ERC721InvalidOperator(address)": [
        {
          "details": "Indicates a failure with the `operator` to be approved. Used in approvals.",
          "params": {
            "operator": "Address that may be allowed to operate on tokens without being their owner."
          }
        }
      ],
      "ERC721InvalidOwner(address)": [
        {
          "details": "Indicates that an address can't be an owner. For example, `address(0)` is a forbidden owner in ERC-20. Used in balance queries.",
          "params": {
            "owner": "Address of the current owner of a token."
          }
        }
      ],
      "ERC721InvalidReceiver(address)": [
        {
          "details": "Indicates a failure with the token `receiver`. Used in transfers.",
          "params": {
            "receiver": "Address to which tokens are being transferred."
          }
        }
      ],
      "ERC721InvalidSender(address)": [
        {
          "details": "Indicates a failure with the token `sender`. Used in transfers.",
          "params": {
            "sender": "Address whose tokens are being transferred."
          }
        }
      ],
      "ERC721NonexistentToken(uint256)": [
        {
          "details": "Indicates a `tokenId` whose `owner` is the zero address.",
          "params": {
            "tokenId": "Identifier number of a token."
          }
        }
      ],
      "OwnableInvalidOwner(address)": [
        {
          "details": "The owner is not a valid owner account. (eg. `address(0)`)"
        }
      ],
      "OwnableUnauthorizedAccount(address)": [
        {
          "details": "The caller account is not authorized to perform an operation."
        }
      ]
    },
    "events": {
      "Approval(address,address,uint256)": {
        "details": "Emitted when `owner` enables `approved` to manage the `tokenId` token."
      },
      "ApprovalForAll(address,address,bool)": {
        "details": "Emitted when `owner` enables or disables (`approved`) `operator` to manage all of its assets."
      },
      "BatchMetadataUpdate(uint256,uint256)": {
        "details": "This event emits when the metadata of a range of tokens is changed. So that the third-party platforms such as NFT market could timely update the images and related attributes of the NFTs."
      },
      "MetadataUpdate(uint256)": {
        "details": "This event emits when the metadata of a token is changed. So that the third-party platforms such as NFT market could timely update the images and related attributes of the NFT."
      },
      "Transfer(address,address,uint256)": {
        "details": "Emitted when `tokenId` token is transferred from `from` to `to`."
      }
    },
    "kind": "dev",
    "methods": {
      "approve(address,uint256)": {
        "details": "See {IERC721-approve}."
      },
      "balanceOf(address)": {
        "details": "See {IERC721-balanceOf}."
      },
      "getApproved(uint256)": {
        "details": "See {IERC721-getApproved}."
      },
      "isApprovedForAll(address,address)": {
        "details": "See {IERC721-isApprovedForAll}."
      },
      "mintAsset(address,uint256)": {
        "params": {
          "to": "The address of the recipient of the new token.",
          "tokenId": "The unique identifier for the new token."
        }
      },
      "name()": {
        "details": "See {IERC721Metadata-name}."
      },
      "owner()": {
        "details": "Returns the address of the current owner."
      },
      "ownerOf(uint256)": {
        "details": "See {IERC721-ownerOf}."
      },
      "renounceOwnership()": {
        "details": "Leaves the contract without owner. It will not be possible to call `onlyOwner` functions. Can only be called by the current owner. NOTE: Renouncing ownership will leave the contract without an owner, thereby disabling any functionality that is only available to the owner."
      },
      "safeTransferFrom(address,address,uint256)": {
        "details": "See {IERC721-safeTransferFrom}."
      },
      "safeTransferFrom(address,address,uint256,bytes)": {
        "details": "See {IERC721-safeTransferFrom}."
      },
      "setApprovalForAll(address,bool)": {
        "details": "See {IERC721-setApprovalForAll}."
      },
      "supportsInterface(bytes4)": {
        "details": "See {IERC165-supportsInterface}. Returns whether this contract implements a given interface."
      },
      "symbol()": {
        "details": "See {IERC721Metadata-symbol}."
      },
      "tokenURI(uint256)": {
        "details": "See {ERC721-tokenURI}. Returns the full URI for a given token, combining the base URI and the token-specific URI."
      },
      "transferAsset(address,uint256)": {
        "params": {
          "to": "The address of the recipient of the token.",
          "tokenId": "The unique identifier of the token to be transferred."
        }
      },
      "transferFrom(address,address,uint256)": {
        "details": "See {IERC721-transferFrom}."
      },
      "transferOwnership(address)": {
        "details": "Transfers ownership of the contract to a new account (`newOwner`). Can only be called by the current owner."
      }
    },
    "title": "MyContract",
    "version": 1
  },
  "userdoc": {
    "kind": "user",
    "methods": {
      "mintAsset(address,uint256)": {
        "notice": "Mints a new ERC721 token and assigns it to the recipient address. This function can only be called by the contract owner. The token URI is set to the base URI concatenated with the token ID."
      },
      "transferAsset(address,uint256)": {
        "notice": "Transfers a specific token from the caller's address to another address. This function can only be called by the current owner of the token or an approved address. It uses the standard ERC721 `_transfer` internal function."
      }
    },
    "version": 1
  }
}