{
  "contractName": "MyToken",
  "abi": [
    {
      "inputs": [
        {
          "internalType": "address",
          "name": "initialOwner",
          "type": "address"
        }
      ],
      "stateMutability": "nonpayable",
      "type": "constructor"
    },
    {
      "inputs": [
        {
          "internalType": "address",
          "name": "sender",
          "type": "address"
        },
        {
          "internalType": "uint256",
          "name": "tokenId",
          "type": "uint256"
        },
        {
          "internalType": "address",
          "name": "owner",
          "type": "address"
        }
      ],
      "name": "ERC721IncorrectOwner",
      "type": "error"
    },
    {
      "inputs": [
        {
          "internalType": "address",
          "name": "operator",
          "type": "address"
        },
        {
          "internalType": "uint256",
          "name": "tokenId",
          "type": "uint256"
        }
      ],
      "name": "ERC721InsufficientApproval",
      "type": "error"
    },
    {
      "inputs": [
        {
          "internalType": "address",
          "name": "approver",
          "type": "address"
        }
      ],
      "name": "ERC721InvalidApprover",
      "type": "error"
    },
    {
      "inputs": [
        {
          "internalType": "address",
          "name": "operator",
          "type": "address"
        }
      ],
      "name": "ERC721InvalidOperator",
      "type": "error"
    },
    {
      "inputs": [
        {
          "internalType": "address",
          "name": "owner",
          "type": "address"
        }
      ],
      "name": "ERC721InvalidOwner",
      "type": "error"
    },
    {
      "inputs": [
        {
          "internalType": "address",
          "name": "receiver",
          "type": "address"
        }
      ],
      "name": "ERC721InvalidReceiver",
      "type": "error"
    },
    {
      "inputs": [
        {
          "internalType": "address",
          "name": "sender",
          "type": "address"
        }
      ],
      "name": "ERC721InvalidSender",
      "type": "error"
    },
    {
      "inputs": [
        {
          "internalType": "uint256",
          "name": "tokenId",
          "type": "uint256"
        }
      ],
      "name": "ERC721NonexistentToken",
      "type": "error"
    },
    {
      "inputs": [
        {
          "internalType": "address",
          "name": "owner",
          "type": "address"
        }
      ],
      "name": "OwnableInvalidOwner",
      "type": "error"
    },
    {
      "inputs": [
        {
          "internalType": "address",
          "name": "account",
          "type": "address"
        }
      ],
      "name": "OwnableUnauthorizedAccount",
      "type": "error"
    },
    {
      "anonymous": false,
      "inputs": [
        {
          "indexed": true,
          "internalType": "address",
          "name": "owner",
          "type": "address"
        },
        {
          "indexed": true,
          "internalType": "address",
          "name": "approved",
          "type": "address"
        },
        {
          "indexed": true,
          "internalType": "uint256",
          "name": "tokenId",
          "type": "uint256"
        }
      ],
      "name": "Approval",
      "type": "event"
    },
    {
      "anonymous": false,
      "inputs": [
        {
          "indexed": true,
          "internalType": "address",
          "name": "owner",
          "type": "address"
        },
        {
          "indexed": true,
          "internalType": "address",
          "name": "operator",
          "type": "address"
        },
        {
          "indexed": false,
          "internalType": "bool",
          "name": "approved",
          "type": "bool"
        }
      ],
      "name": "ApprovalForAll",
      "type": "event"
    },
    {
      "anonymous": false,
      "inputs": [
        {
          "indexed": false,
          "internalType": "uint256",
          "name": "_fromTokenId",
          "type": "uint256"
        },
        {
          "indexed": false,
          "internalType": "uint256",
          "name": "_toTokenId",
          "type": "uint256"
        }
      ],
      "name": "BatchMetadataUpdate",
      "type": "event"
    },
    {
      "anonymous": false,
      "inputs": [
        {
          "indexed": false,
          "internalType": "uint256",
          "name": "_tokenId",
          "type": "uint256"
        }
      ],
      "name": "MetadataUpdate",
      "type": "event"
    },
    {
      "anonymous": false,
      "inputs": [
        {
          "indexed": true,
          "internalType": "address",
          "name": "previousOwner",
          "type": "address"
        },
        {
          "indexed": true,
          "internalType": "address",
          "name": "newOwner",
          "type": "address"
        }
      ],
      "name": "OwnershipTransferred",
      "type": "event"
    },
    {
      "anonymous": false,
      "inputs": [
        {
          "indexed": true,
          "internalType": "address",
          "name": "from",
          "type": "address"
        },
        {
          "indexed": true,
          "internalType": "address",
          "name": "to",
          "type": "address"
        },
        {
          "indexed": true,
          "internalType": "uint256",
          "name": "tokenId",
          "type": "uint256"
        }
      ],
      "name": "Transfer",
      "type": "event"
    },
    {
      "inputs": [
        {
          "internalType": "address",
          "name": "to",
          "type": "address"
        },
        {
          "internalType": "uint256",
          "name": "tokenId",
          "type": "uint256"
        }
      ],
      "name": "approve",
      "outputs": [],
      "stateMutability": "nonpayable",
      "type": "function"
    },
    {
      "inputs": [
        {
          "internalType": "address",
          "name": "owner",
          "type": "address"
        }
      ],
      "name": "balanceOf",
      "outputs": [
        {
          "internalType": "uint256",
          "name": "",
          "type": "uint256"
        }
      ],
      "stateMutability": "view",
      "type": "function"
    },
    {
      "inputs": [
        {
          "internalType": "uint256",
          "name": "tokenId",
          "type": "uint256"
        }
      ],
      "name": "getApproved",
      "outputs": [
        {
          "internalType": "address",
          "name": "",
          "type": "address"
        }
      ],
      "stateMutability": "view",
      "type": "function"
    },
    {
      "inputs": [
        {
          "internalType": "address",
          "name": "owner",
          "type": "address"
        },
        {
          "internalType": "address",
          "name": "operator",
          "type": "address"
        }
      ],
      "name": "isApprovedForAll",
      "outputs": [
        {
          "internalType": "bool",
          "name": "",
          "type": "bool"
        }
      ],
      "stateMutability": "view",
      "type": "function"
    },
    {
      "inputs": [],
      "name": "name",
      "outputs": [
        {
          "internalType": "string",
          "name": "",
          "type": "string"
        }
      ],
      "stateMutability": "view",
      "type": "function"
    },
    {
      "inputs": [],
      "name": "owner",
      "outputs": [
        {
          "internalType": "address",
          "name": "",
          "type": "address"
        }
      ],
      "stateMutability": "view",
      "type": "function"
    },
    {
      "inputs": [
        {
          "internalType": "uint256",
          "name": "tokenId",
          "type": "uint256"
        }
      ],
      "name": "ownerOf",
      "outputs": [
        {
          "internalType": "address",
          "name": "",
          "type": "address"
        }
      ],
      "stateMutability": "view",
      "type": "function"
    },
    {
      "inputs": [],
      "name": "renounceOwnership",
      "outputs": [],
      "stateMutability": "nonpayable",
      "type": "function"
    },
    {
      "inputs": [
        {
          "internalType": "address",
          "name": "from",
          "type": "address"
        },
        {
          "internalType": "address",
          "name": "to",
          "type": "address"
        },
        {
          "internalType": "uint256",
          "name": "tokenId",
          "type": "uint256"
        }
      ],
      "name": "safeTransferFrom",
      "outputs": [],
      "stateMutability": "nonpayable",
      "type": "function"
    },
    {
      "inputs": [
        {
          "internalType": "address",
          "name": "from",
          "type": "address"
        },
        {
          "internalType": "address",
          "name": "to",
          "type": "address"
        },
        {
          "internalType": "uint256",
          "name": "tokenId",
          "type": "uint256"
        },
        {
          "internalType": "bytes",
          "name": "data",
          "type": "bytes"
        }
      ],
      "name": "safeTransferFrom",
      "outputs": [],
      "stateMutability": "nonpayable",
      "type": "function"
    },
    {
      "inputs": [
        {
          "internalType": "address",
          "name": "operator",
          "type": "address"
        },
        {
          "internalType": "bool",
          "name": "approved",
          "type": "bool"
        }
      ],
      "name": "setApprovalForAll",
      "outputs": [],
      "stateMutability": "nonpayable",
      "type": "function"
    },
    {
      "inputs": [],
      "name": "symbol",
      "outputs": [
        {
          "internalType": "string",
          "name": "",
          "type": "string"
        }
      ],
      "stateMutability": "view",
      "type": "function"
    },
    {
      "inputs": [
        {
          "internalType": "address",
          "name": "from",
          "type": "address"
        },
        {
          "internalType": "address",
          "name": "to",
          "type": "address"
        },
        {
          "internalType": "uint256",
          "name": "tokenId",
          "type": "uint256"
        }
      ],
      "name": "transferFrom",
      "outputs": [],
      "stateMutability": "nonpayable",
      "type": "function"
    },
    {
      "inputs": [
        {
          "internalType": "address",
          "name": "newOwner",
          "type": "address"
        }
      ],
      "name": "transferOwnership",
      "outputs": [],
      "stateMutability": "nonpayable",
      "type": "function"
    },
    {
      "inputs": [
        {
          "internalType": "address",
          "name": "to",
          "type": "address"
        },
        {
          "internalType": "uint256",
          "name": "tokenId",
          "type": "uint256"
        },
        {
          "internalType": "string",
          "name": "uri",
          "type": "string"
        }
      ],
      "name": "safeMint",
      "outputs": [],
      "stateMutability": "nonpayable",
      "type": "function"
    },
    {
      "inputs": [
        {
          "internalType": "address",
          "name": "to",
          "type": "address"
        },
        {
          "internalType": "uint256",
          "name": "tokenId",
          "type": "uint256"
        }
      ],
      "name": "transferAsset",
      "outputs": [],
      "stateMutability": "nonpayable",
      "type": "function"
    },
    {
      "inputs": [
        {
          "internalType": "uint256",
          "name": "tokenId",
          "type": "uint256"
        }
      ],
      "name": "tokenURI",
      "outputs": [
        {
          "internalType": "string",
          "name": "",
          "type": "string"
        }
      ],
      "stateMutability": "view",
      "type": "function"
    },
    {
      "inputs": [
        {
          "internalType": "bytes4",
          "name": "interfaceId",
          "type": "bytes4"
        }
      ],
      "name": "supportsInterface",
      "outputs": [
        {
          "internalType": "bool",
          "name": "",
          "type": "bool"
        }
      ],
      "stateMutability": "view",
      "type": "function"
    }
  ],
  "bytecode": "0x608060405234801561000f575f5ffd5b50604051612bc0380380612bc083398181016040528101906100319190610266565b806040518060400160405280600781526020017f4d79546f6b656e000000000000000000000000000000000000000000000000008152506040518060400160405280600381526020017f4d544b0000000000000000000000000000000000000000000000000000000000815250815f90816100ac91906104ce565b5080600190816100bc91906104ce565b5050505f73ffffffffffffffffffffffffffffffffffffffff168173ffffffffffffffffffffffffffffffffffffffff160361012f575f6040517f1e4fbdf700000000000000000000000000000000000000000000000000000000815260040161012691906105ac565b60405180910390fd5b61013e8161014560201b60201c565b50506105c5565b5f60075f9054906101000a900473ffffffffffffffffffffffffffffffffffffffff1690508160075f6101000a81548173ffffffffffffffffffffffffffffffffffffffff021916908373ffffffffffffffffffffffffffffffffffffffff1602179055508173ffffffffffffffffffffffffffffffffffffffff168173ffffffffffffffffffffffffffffffffffffffff167f8be0079c531659141344cd1fd0a4f28419497f9722a3daafe3b4186f6b6457e060405160405180910390a35050565b5f5ffd5b5f73ffffffffffffffffffffffffffffffffffffffff82169050919050565b5f6102358261020c565b9050919050565b6102458161022b565b811461024f575f5ffd5b50565b5f815190506102608161023c565b92915050565b5f6020828403121561027b5761027a610208565b5b5f61028884828501610252565b91505092915050565b5f81519050919050565b7f4e487b71000000000000000000000000000000000000000000000000000000005f52604160045260245ffd5b7f4e487b71000000000000000000000000000000000000000000000000000000005f52602260045260245ffd5b5f600282049050600182168061030c57607f821691505b60208210810361031f5761031e6102c8565b5b50919050565b5f819050815f5260205f209050919050565b5f6020601f8301049050919050565b5f82821b905092915050565b5f600883026103817fffffffffffffffffffffffffffffffffffffffffffffffffffffffffffffffff82610346565b61038b8683610346565b95508019841693508086168417925050509392505050565b5f819050919050565b5f819050919050565b5f6103cf6103ca6103c5846103a3565b6103ac565b6103a3565b9050919050565b5f819050919050565b6103e8836103b5565b6103fc6103f4826103d6565b848454610352565b825550505050565b5f5f905090565b610413610404565b61041e8184846103df565b505050565b5b81811015610441576104365f8261040b565b600181019050610424565b5050565b601f8211156104865761045781610325565b61046084610337565b8101602085101561046f578190505b61048361047b85610337565b830182610423565b50505b505050565b5f82821c905092915050565b5f6104a65f198460080261048b565b1980831691505092915050565b5f6104be8383610497565b9150826002028217905092915050565b6104d782610291565b67ffffffffffffffff8111156104f0576104ef61029b565b5b6104fa82546102f5565b610505828285610445565b5f60209050601f831160018114610536575f8415610524578287015190505b61052e85826104b3565b865550610595565b601f19841661054486610325565b5f5b8281101561056b57848901518255600182019150602085019450602081019050610546565b868310156105885784890151610584601f891682610497565b8355505b6001600288020188555050505b505050505050565b6105a68161022b565b82525050565b5f6020820190506105bf5f83018461059d565b92915050565b6125ee806105d25f395ff3fe608060405234801561000f575f5ffd5b5060043610610114575f3560e01c8063715018a6116100a0578063b88d4fde1161006f578063b88d4fde146102c8578063c87b56dd146102e4578063cd279c7c14610314578063e985e9c514610330578063f2fde38b1461036057610114565b8063715018a6146102665780638da5cb5b1461027057806395d89b411461028e578063a22cb465146102ac57610114565b806323b872dd116100e757806323b872dd146101b257806342842e0e146101ce5780635c921eb9146101ea5780636352211e1461020657806370a082311461023657610114565b806301ffc9a71461011857806306fdde0314610148578063081812fc14610166578063095ea7b314610196575b5f5ffd5b610132600480360381019061012d9190611aea565b61037c565b60405161013f9190611b2f565b60405180910390f35b61015061038d565b60405161015d9190611bb8565b60405180910390f35b610180600480360381019061017b9190611c0b565b61041c565b60405161018d9190611c75565b60405180910390f35b6101b060048036038101906101ab9190611cb8565b610437565b005b6101cc60048036038101906101c79190611cf6565b61044d565b005b6101e860048036038101906101e39190611cf6565b61054c565b005b61020460048036038101906101ff9190611cb8565b61056b565b005b610220600480360381019061021b9190611c0b565b6105d2565b60405161022d9190611c75565b60405180910390f35b610250600480360381019061024b9190611d46565b6105e3565b60405161025d9190611d80565b60405180910390f35b61026e610699565b005b6102786106ac565b6040516102859190611c75565b60405180910390f35b6102966106d4565b6040516102a39190611bb8565b60405180910390f35b6102c660048036038101906102c19190611dc3565b610764565b005b6102e260048036038101906102dd9190611f2d565b61077a565b005b6102fe60048036038101906102f99190611c0b565b61079f565b60405161030b9190611bb8565b60405180910390f35b61032e6004803603810190610329919061204b565b6107b1565b005b61034a600480360381019061034591906120b7565b6107d2565b6040516103579190611b2f565b60405180910390f35b61037a60048036038101906103759190611d46565b610860565b005b5f610386826108e4565b9050919050565b60605f805461039b90612122565b80601f01602080910402602001604051908101604052809291908181526020018280546103c790612122565b80156104125780601f106103e957610100808354040283529160200191610412565b820191905f5260205f20905b8154815290600101906020018083116103f557829003601f168201915b5050505050905090565b5f61042682610944565b50610430826109ca565b9050919050565b6104498282610444610a03565b610a0a565b5050565b5f73ffffffffffffffffffffffffffffffffffffffff168273ffffffffffffffffffffffffffffffffffffffff16036104bd575f6040517f64a0ae920000000000000000000000000000000000000000000000000000000081526004016104b49190611c75565b60405180910390fd5b5f6104d083836104cb610a03565b610a1c565b90508373ffffffffffffffffffffffffffffffffffffffff168173ffffffffffffffffffffffffffffffffffffffff1614610546578382826040517f64283d7b00000000000000000000000000000000000000000000000000000000815260040161053d93929190612152565b60405180910390fd5b50505050565b61056683838360405180602001604052805f81525061077a565b505050565b808273ffffffffffffffffffffffffffffffffffffffff1661058c836105d2565b73ffffffffffffffffffffffffffffffffffffffff167fddf252ad1be2c89b69c2b068fc378daa952ba7f163c4a11628f55a4df523b3ef60405160405180910390a45050565b5f6105dc82610944565b9050919050565b5f5f73ffffffffffffffffffffffffffffffffffffffff168273ffffffffffffffffffffffffffffffffffffffff1603610654575f6040517f89c62b6400000000000000000000000000000000000000000000000000000000815260040161064b9190611c75565b60405180910390fd5b60035f8373ffffffffffffffffffffffffffffffffffffffff1673ffffffffffffffffffffffffffffffffffffffff1681526020019081526020015f20549050919050565b6106a1610c27565b6106aa5f610cae565b565b5f60075f9054906101000a900473ffffffffffffffffffffffffffffffffffffffff16905090565b6060600180546106e390612122565b80601f016020809104026020016040519081016040528092919081815260200182805461070f90612122565b801561075a5780601f106107315761010080835404028352916020019161075a565b820191905f5260205f20905b81548152906001019060200180831161073d57829003601f168201915b5050505050905090565b61077661076f610a03565b8383610d71565b5050565b61078584848461044d565b610799610790610a03565b85858585610eda565b50505050565b60606107aa82611086565b9050919050565b6107b9610c27565b6107c38383611191565b6107cd82826111ae565b505050565b5f60055f8473ffffffffffffffffffffffffffffffffffffffff1673ffffffffffffffffffffffffffffffffffffffff1681526020019081526020015f205f8373ffffffffffffffffffffffffffffffffffffffff1673ffffffffffffffffffffffffffffffffffffffff1681526020019081526020015f205f9054906101000a900460ff16905092915050565b610868610c27565b5f73ffffffffffffffffffffffffffffffffffffffff168173ffffffffffffffffffffffffffffffffffffffff16036108d8575f6040517f1e4fbdf70000000000000000000000000000000000000000000000000000000081526004016108cf9190611c75565b60405180910390fd5b6108e181610cae565b50565b5f634906490660e01b7bffffffffffffffffffffffffffffffffffffffffffffffffffffffff1916827bffffffffffffffffffffffffffffffffffffffffffffffffffffffff1916148061093d575061093c82611208565b5b9050919050565b5f5f61094f836112e9565b90505f73ffffffffffffffffffffffffffffffffffffffff168173ffffffffffffffffffffffffffffffffffffffff16036109c157826040517f7e2732890000000000000000000000000000000000000000000000000000000081526004016109b89190611d80565b60405180910390fd5b80915050919050565b5f60045f8381526020019081526020015f205f9054906101000a900473ffffffffffffffffffffffffffffffffffffffff169050919050565b5f33905090565b610a178383836001611322565b505050565b5f5f610a27846112e9565b90505f73ffffffffffffffffffffffffffffffffffffffff168373ffffffffffffffffffffffffffffffffffffffff1614610a6857610a678184866114e1565b5b5f73ffffffffffffffffffffffffffffffffffffffff168173ffffffffffffffffffffffffffffffffffffffff1614610af357610aa75f855f5f611322565b600160035f8373ffffffffffffffffffffffffffffffffffffffff1673ffffffffffffffffffffffffffffffffffffffff1681526020019081526020015f205f82825403925050819055505b5f73ffffffffffffffffffffffffffffffffffffffff168573ffffffffffffffffffffffffffffffffffffffff1614610b7257600160035f8773ffffffffffffffffffffffffffffffffffffffff1673ffffffffffffffffffffffffffffffffffffffff1681526020019081526020015f205f82825401925050819055505b8460025f8681526020019081526020015f205f6101000a81548173ffffffffffffffffffffffffffffffffffffffff021916908373ffffffffffffffffffffffffffffffffffffffff160217905550838573ffffffffffffffffffffffffffffffffffffffff168273ffffffffffffffffffffffffffffffffffffffff167fddf252ad1be2c89b69c2b068fc378daa952ba7f163c4a11628f55a4df523b3ef60405160405180910390a4809150509392505050565b610c2f610a03565b73ffffffffffffffffffffffffffffffffffffffff16610c4d6106ac565b73ffffffffffffffffffffffffffffffffffffffff1614610cac57610c70610a03565b6040517f118cdaa7000000000000000000000000000000000000000000000000000000008152600401610ca39190611c75565b60405180910390fd5b565b5f60075f9054906101000a900473ffffffffffffffffffffffffffffffffffffffff1690508160075f6101000a81548173ffffffffffffffffffffffffffffffffffffffff021916908373ffffffffffffffffffffffffffffffffffffffff1602179055508173ffffffffffffffffffffffffffffffffffffffff168173ffffffffffffffffffffffffffffffffffffffff167f8be0079c531659141344cd1fd0a4f28419497f9722a3daafe3b4186f6b6457e060405160405180910390a35050565b5f73ffffffffffffffffffffffffffffffffffffffff168273ffffffffffffffffffffffffffffffffffffffff1603610de157816040517f5b08ba18000000000000000000000000000000000000000000000000000000008152600401610dd89190611c75565b60405180910390fd5b8060055f8573ffffffffffffffffffffffffffffffffffffffff1673ffffffffffffffffffffffffffffffffffffffff1681526020019081526020015f205f8473ffffffffffffffffffffffffffffffffffffffff1673ffffffffffffffffffffffffffffffffffffffff1681526020019081526020015f205f6101000a81548160ff0219169083151502179055508173ffffffffffffffffffffffffffffffffffffffff168373ffffffffffffffffffffffffffffffffffffffff167f17307eab39ab6107e8899845ad3d59bd9653f200f220920489ca2b5937696c3183604051610ecd9190611b2f565b60405180910390a3505050565b5f8373ffffffffffffffffffffffffffffffffffffffff163b111561107f578273ffffffffffffffffffffffffffffffffffffffff1663150b7a02868685856040518563ffffffff1660e01b8152600401610f3894939291906121d9565b6020604051808303815f875af1925050508015610f7357506040513d601f19601f82011682018060405250810190610f709190612237565b60015b610ff4573d805f8114610fa1576040519150601f19603f3d011682016040523d82523d5f602084013e610fa6565b606091505b505f815103610fec57836040517f64a0ae92000000000000000000000000000000000000000000000000000000008152600401610fe39190611c75565b60405180910390fd5b805181602001fd5b63150b7a0260e01b7bffffffffffffffffffffffffffffffffffffffffffffffffffffffff1916817bffffffffffffffffffffffffffffffffffffffffffffffffffffffff19161461107d57836040517f64a0ae920000000000000000000000000000000000000000000000000000000081526004016110749190611c75565b60405180910390fd5b505b5050505050565b606061109182610944565b505f60065f8481526020019081526020015f2080546110af90612122565b80601f01602080910402602001604051908101604052809291908181526020018280546110db90612122565b80156111265780601f106110fd57610100808354040283529160200191611126565b820191905f5260205f20905b81548152906001019060200180831161110957829003601f168201915b505050505090505f6111366115a4565b90505f81510361114a57819250505061118c565b5f8251111561117e57808260405160200161116692919061229c565b6040516020818303038152906040529250505061118c565b611187846115c4565b925050505b919050565b6111aa828260405180602001604052805f81525061162a565b5050565b8060065f8481526020019081526020015f2090816111cc919061245f565b507ff8e1a15aba9398e019f0b49df1a4fde98ee17ae345cb5f6b5e2c27f5033e8ce7826040516111fc9190611d80565b60405180910390a15050565b5f7f80ac58cd000000000000000000000000000000000000000000000000000000007bffffffffffffffffffffffffffffffffffffffffffffffffffffffff1916827bffffffffffffffffffffffffffffffffffffffffffffffffffffffff191614806112d257507f5b5e139f000000000000000000000000000000000000000000000000000000007bffffffffffffffffffffffffffffffffffffffffffffffffffffffff1916827bffffffffffffffffffffffffffffffffffffffffffffffffffffffff1916145b806112e257506112e18261164d565b5b9050919050565b5f60025f8381526020019081526020015f205f9054906101000a900473ffffffffffffffffffffffffffffffffffffffff169050919050565b808061135a57505f73ffffffffffffffffffffffffffffffffffffffff168273ffffffffffffffffffffffffffffffffffffffff1614155b1561148c575f61136984610944565b90505f73ffffffffffffffffffffffffffffffffffffffff168373ffffffffffffffffffffffffffffffffffffffff16141580156113d357508273ffffffffffffffffffffffffffffffffffffffff168173ffffffffffffffffffffffffffffffffffffffff1614155b80156113e657506113e481846107d2565b155b1561142857826040517fa9fbf51f00000000000000000000000000000000000000000000000000000000815260040161141f9190611c75565b60405180910390fd5b811561148a57838573ffffffffffffffffffffffffffffffffffffffff168273ffffffffffffffffffffffffffffffffffffffff167f8c5be1e5ebec7d5bd14f71427d1e84f3dd0314c0f7b2291e5b200ac8c7c3b92560405160405180910390a45b505b8360045f8581526020019081526020015f205f6101000a81548173ffffffffffffffffffffffffffffffffffffffff021916908373ffffffffffffffffffffffffffffffffffffffff16021790555050505050565b6114ec8383836116b6565b61159f575f73ffffffffffffffffffffffffffffffffffffffff168373ffffffffffffffffffffffffffffffffffffffff160361156057806040517f7e2732890000000000000000000000000000000000000000000000000000000081526004016115579190611d80565b60405180910390fd5b81816040517f177e802f00000000000000000000000000000000000000000000000000000000815260040161159692919061252e565b60405180910390fd5b505050565b606060405180606001604052806036815260200161258360369139905090565b60606115cf82610944565b505f6115d96115a4565b90505f8151116115f75760405180602001604052805f815250611622565b8061160184611776565b60405160200161161292919061229c565b6040516020818303038152906040525b915050919050565b6116348383611840565b61164861163f610a03565b5f858585610eda565b505050565b5f7f01ffc9a7000000000000000000000000000000000000000000000000000000007bffffffffffffffffffffffffffffffffffffffffffffffffffffffff1916827bffffffffffffffffffffffffffffffffffffffffffffffffffffffff1916149050919050565b5f5f73ffffffffffffffffffffffffffffffffffffffff168373ffffffffffffffffffffffffffffffffffffffff161415801561176d57508273ffffffffffffffffffffffffffffffffffffffff168473ffffffffffffffffffffffffffffffffffffffff16148061172e575061172d84846107d2565b5b8061176c57508273ffffffffffffffffffffffffffffffffffffffff16611754836109ca565b73ffffffffffffffffffffffffffffffffffffffff16145b5b90509392505050565b60605f600161178484611933565b0190505f8167ffffffffffffffff8111156117a2576117a1611e09565b5b6040519080825280601f01601f1916602001820160405280156117d45781602001600182028036833780820191505090505b5090505f82602001820190505b600115611835578080600190039150507f3031323334353637383961626364656600000000000000000000000000000000600a86061a8153600a858161182a57611829612555565b5b0494505f85036117e1575b819350505050919050565b5f73ffffffffffffffffffffffffffffffffffffffff168273ffffffffffffffffffffffffffffffffffffffff16036118b0575f6040517f64a0ae920000000000000000000000000000000000000000000000000000000081526004016118a79190611c75565b60405180910390fd5b5f6118bc83835f610a1c565b90505f73ffffffffffffffffffffffffffffffffffffffff168173ffffffffffffffffffffffffffffffffffffffff161461192e575f6040517f73c6ac6e0000000000000000000000000000000000000000000000000000000081526004016119259190611c75565b60405180910390fd5b505050565b5f5f5f90507a184f03e93ff9f4daa797ed6e38ed64bf6a1f010000000000000000831061198f577a184f03e93ff9f4daa797ed6e38ed64bf6a1f010000000000000000838161198557611984612555565b5b0492506040810190505b6d04ee2d6d415b85acef810000000083106119cc576d04ee2d6d415b85acef810000000083816119c2576119c1612555565b5b0492506020810190505b662386f26fc1000083106119fb57662386f26fc1000083816119f1576119f0612555565b5b0492506010810190505b6305f5e1008310611a24576305f5e1008381611a1a57611a19612555565b5b0492506008810190505b6127108310611a49576127108381611a3f57611a3e612555565b5b0492506004810190505b60648310611a6c5760648381611a6257611a61612555565b5b0492506002810190505b600a8310611a7b576001810190505b80915050919050565b5f604051905090565b5f5ffd5b5f5ffd5b5f7fffffffff0000000000000000000000000000000000000000000000000000000082169050919050565b611ac981611a95565b8114611ad3575f5ffd5b50565b5f81359050611ae481611ac0565b92915050565b5f60208284031215611aff57611afe611a8d565b5b5f611b0c84828501611ad6565b91505092915050565b5f8115159050919050565b611b2981611b15565b82525050565b5f602082019050611b425f830184611b20565b92915050565b5f81519050919050565b5f82825260208201905092915050565b8281835e5f83830152505050565b5f601f19601f8301169050919050565b5f611b8a82611b48565b611b948185611b52565b9350611ba4818560208601611b62565b611bad81611b70565b840191505092915050565b5f6020820190508181035f830152611bd08184611b80565b905092915050565b5f819050919050565b611bea81611bd8565b8114611bf4575f5ffd5b50565b5f81359050611c0581611be1565b92915050565b5f60208284031215611c2057611c1f611a8d565b5b5f611c2d84828501611bf7565b91505092915050565b5f73ffffffffffffffffffffffffffffffffffffffff82169050919050565b5f611c5f82611c36565b9050919050565b611c6f81611c55565b82525050565b5f602082019050611c885f830184611c66565b92915050565b611c9781611c55565b8114611ca1575f5ffd5b50565b5f81359050611cb281611c8e565b92915050565b5f5f60408385031215611cce57611ccd611a8d565b5b5f611cdb85828601611ca4565b9250506020611cec85828601611bf7565b9150509250929050565b5f5f5f60608486031215611d0d57611d0c611a8d565b5b5f611d1a86828701611ca4565b9350506020611d2b86828701611ca4565b9250506040611d3c86828701611bf7565b9150509250925092565b5f60208284031215611d5b57611d5a611a8d565b5b5f611d6884828501611ca4565b91505092915050565b611d7a81611bd8565b82525050565b5f602082019050611d935f830184611d71565b92915050565b611da281611b15565b8114611dac575f5ffd5b50565b5f81359050611dbd81611d99565b92915050565b5f5f60408385031215611dd957611dd8611a8d565b5b5f611de685828601611ca4565b9250506020611df785828601611daf565b9150509250929050565b5f5ffd5b5f5ffd5b7f4e487b71000000000000000000000000000000000000000000000000000000005f52604160045260245ffd5b611e3f82611b70565b810181811067ffffffffffffffff82111715611e5e57611e5d611e09565b5b80604052505050565b5f611e70611a84565b9050611e7c8282611e36565b919050565b5f67ffffffffffffffff821115611e9b57611e9a611e09565b5b611ea482611b70565b9050602081019050919050565b828183375f83830152505050565b5f611ed1611ecc84611e81565b611e67565b905082815260208101848484011115611eed57611eec611e05565b5b611ef8848285611eb1565b509392505050565b5f82601f830112611f1457611f13611e01565b5b8135611f24848260208601611ebf565b91505092915050565b5f5f5f5f60808587031215611f4557611f44611a8d565b5b5f611f5287828801611ca4565b9450506020611f6387828801611ca4565b9350506040611f7487828801611bf7565b925050606085013567ffffffffffffffff811115611f9557611f94611a91565b5b611fa187828801611f00565b91505092959194509250565b5f67ffffffffffffffff821115611fc757611fc6611e09565b5b611fd082611b70565b9050602081019050919050565b5f611fef611fea84611fad565b611e67565b90508281526020810184848401111561200b5761200a611e05565b5b612016848285611eb1565b509392505050565b5f82601f83011261203257612031611e01565b5b8135612042848260208601611fdd565b91505092915050565b5f5f5f6060848603121561206257612061611a8d565b5b5f61206f86828701611ca4565b935050602061208086828701611bf7565b925050604084013567ffffffffffffffff8111156120a1576120a0611a91565b5b6120ad8682870161201e565b9150509250925092565b5f5f604083850312156120cd576120cc611a8d565b5b5f6120da85828601611ca4565b92505060206120eb85828601611ca4565b9150509250929050565b7f4e487b71000000000000000000000000000000000000000000000000000000005f52602260045260245ffd5b5f600282049050600182168061213957607f821691505b60208210810361214c5761214b6120f5565b5b50919050565b5f6060820190506121655f830186611c66565b6121726020830185611d71565b61217f6040830184611c66565b949350505050565b5f81519050919050565b5f82825260208201905092915050565b5f6121ab82612187565b6121b58185612191565b93506121c5818560208601611b62565b6121ce81611b70565b840191505092915050565b5f6080820190506121ec5f830187611c66565b6121f96020830186611c66565b6122066040830185611d71565b818103606083015261221881846121a1565b905095945050505050565b5f8151905061223181611ac0565b92915050565b5f6020828403121561224c5761224b611a8d565b5b5f61225984828501612223565b91505092915050565b5f81905092915050565b5f61227682611b48565b6122808185612262565b9350612290818560208601611b62565b80840191505092915050565b5f6122a7828561226c565b91506122b3828461226c565b91508190509392505050565b5f819050815f5260205f209050919050565b5f6020601f8301049050919050565b5f82821b905092915050565b5f6008830261231b7fffffffffffffffffffffffffffffffffffffffffffffffffffffffffffffffff826122e0565b61232586836122e0565b95508019841693508086168417925050509392505050565b5f819050919050565b5f61236061235b61235684611bd8565b61233d565b611bd8565b9050919050565b5f819050919050565b61237983612346565b61238d61238582612367565b8484546122ec565b825550505050565b5f5f905090565b6123a4612395565b6123af818484612370565b505050565b5b818110156123d2576123c75f8261239c565b6001810190506123b5565b5050565b601f821115612417576123e8816122bf565b6123f1846122d1565b81016020851015612400578190505b61241461240c856122d1565b8301826123b4565b50505b505050565b5f82821c905092915050565b5f6124375f198460080261241c565b1980831691505092915050565b5f61244f8383612428565b9150826002028217905092915050565b61246882611b48565b67ffffffffffffffff81111561248157612480611e09565b5b61248b8254612122565b6124968282856123d6565b5f60209050601f8311600181146124c7575f84156124b5578287015190505b6124bf8582612444565b865550612526565b601f1984166124d5866122bf565b5f5b828110156124fc578489015182556001820191506020850194506020810190506124d7565b868310156125195784890151612515601f891682612428565b8355505b6001600288020188555050505b505050505050565b5f6040820190506125415f830185611c66565b61254e6020830184611d71565b9392505050565b7f4e487b71000000000000000000000000000000000000000000000000000000005f52601260045260245ffdfe697066733a2f2f516d5a62574e4b4a50416a7858754e465345616b73434a5664314d3644614b5156694a4259504b324264704445502fa2646970667358221220d7e3e4712640c39728f09c070cff67cf22b792169087fdcd8c592eee9cd56b0664736f6c634300081e0033",
  "immutableReferences": {},
  "source": "// SPDX-License-Identifier: MIT\n// Compatible with OpenZeppelin Contracts ^5.0.0\npragma solidity ^0.8.30;\n\nimport {ERC721} from \"@openzeppelin/contracts/token/ERC721/ERC721.sol\";\nimport {ERC721URIStorage} from \"@openzeppelin/contracts/token/ERC721/extensions/ERC721URIStorage.sol\";\nimport {Ownable} from \"@openzeppelin/contracts/access/Ownable.sol\";\n\ncontract MyToken is ERC721, ERC721URIStorage, Ownable {\n    constructor(address initialOwner)\n        ERC721(\"MyToken\", \"MTK\")\n        Ownable(initialOwner)\n    {}\n\n    function _baseURI() internal pure override returns (string memory) {\n        return \"ipfs://QmZbWNKJPAjxXuNFSEaksCJVd1M6DaKQViJBYPK2BdpDEP/\";\n    }\n\n    function safeMint(address to, uint256 tokenId, string memory uri)\n        public\n        onlyOwner\n    {\n        _safeMint(to, tokenId);\n        _setTokenURI(tokenId, uri);\n    }\n\n    function transferAsset(address to, uint256 tokenId)\n        public\n    {\n        emit Transfer(ownerOf(tokenId), to, tokenId);\n        \n    }\n\n    // The following functions are overrides required by Solidity.\n\n    function tokenURI(uint256 tokenId)\n        public\n        view\n        override(ERC721, ERC721URIStorage)\n        returns (string memory)\n    {\n        return super.tokenURI(tokenId);\n    }\n\n    function supportsInterface(bytes4 interfaceId)\n        public\n        view\n        override(ERC721, ERC721URIStorage)\n        returns (bool)\n    {\n        return super.supportsInterface(interfaceId);\n    }\n}",
  "sourcePath": "/Users/payel/Documents/my_github/BlockChain/truffle/contracts/MyContract.sol",
  "compiler": {
    "name": "solc",
    "version": "0.8.30+commit.73712a01.Emscripten.clang"
  },
  "schemaVersion": "3.4.16",
  "updatedAt": "2025-06-25T03:46:16.195Z",
  "devdoc": {
    "errors": {
      "ERC721IncorrectOwner(address,uint256,address)": [
        {
          "details": "Indicates an error related to the ownership over a particular token. Used in transfers.",
          "params": {
            "owner": "Address of the current owner of a token.",
            "sender": "Address whose tokens are being transferred.",
            "tokenId": "Identifier number of a token."
          }
        }
      ],
      "ERC721InsufficientApproval(address,uint256)": [
        {
          "details": "Indicates a failure with the `operator`s approval. Used in transfers.",
          "params": {
            "operator": "Address that may be allowed to operate on tokens without being their owner.",
            "tokenId": "Identifier number of a token."
          }
        }
      ],
      "ERC721InvalidApprover(address)": [
        {
          "details": "Indicates a failure with the `approver` of a token to be approved. Used in approvals.",
          "params": {
            "approver": "Address initiating an approval operation."
          }
        }
      ],
      "ERC721InvalidOperator(address)": [
        {
          "details": "Indicates a failure with the `operator` to be approved. Used in approvals.",
          "params": {
            "operator": "Address that may be allowed to operate on tokens without being their owner."
          }
        }
      ],
      "ERC721InvalidOwner(address)": [
        {
          "details": "Indicates that an address can't be an owner. For example, `address(0)` is a forbidden owner in ERC-20. Used in balance queries.",
          "params": {
            "owner": "Address of the current owner of a token."
          }
        }
      ],
      "ERC721InvalidReceiver(address)": [
        {
          "details": "Indicates a failure with the token `receiver`. Used in transfers.",
          "params": {
            "receiver": "Address to which tokens are being transferred."
          }
        }
      ],
      "ERC721InvalidSender(address)": [
        {
          "details": "Indicates a failure with the token `sender`. Used in transfers.",
          "params": {
            "sender": "Address whose tokens are being transferred."
          }
        }
      ],
      "ERC721NonexistentToken(uint256)": [
        {
          "details": "Indicates a `tokenId` whose `owner` is the zero address.",
          "params": {
            "tokenId": "Identifier number of a token."
          }
        }
      ],
      "OwnableInvalidOwner(address)": [
        {
          "details": "The owner is not a valid owner account. (eg. `address(0)`)"
        }
      ],
      "OwnableUnauthorizedAccount(address)": [
        {
          "details": "The caller account is not authorized to perform an operation."
        }
      ]
    },
    "events": {
      "Approval(address,address,uint256)": {
        "details": "Emitted when `owner` enables `approved` to manage the `tokenId` token."
      },
      "ApprovalForAll(address,address,bool)": {
        "details": "Emitted when `owner` enables or disables (`approved`) `operator` to manage all of its assets."
      },
      "BatchMetadataUpdate(uint256,uint256)": {
        "details": "This event emits when the metadata of a range of tokens is changed. So that the third-party platforms such as NFT market could timely update the images and related attributes of the NFTs."
      },
      "MetadataUpdate(uint256)": {
        "details": "This event emits when the metadata of a token is changed. So that the third-party platforms such as NFT market could timely update the images and related attributes of the NFT."
      },
      "Transfer(address,address,uint256)": {
        "details": "Emitted when `tokenId` token is transferred from `from` to `to`."
      }
    },
    "kind": "dev",
    "methods": {
      "approve(address,uint256)": {
        "details": "See {IERC721-approve}."
      },
      "balanceOf(address)": {
        "details": "See {IERC721-balanceOf}."
      },
      "getApproved(uint256)": {
        "details": "See {IERC721-getApproved}."
      },
      "isApprovedForAll(address,address)": {
        "details": "See {IERC721-isApprovedForAll}."
      },
      "name()": {
        "details": "See {IERC721Metadata-name}."
      },
      "owner()": {
        "details": "Returns the address of the current owner."
      },
      "ownerOf(uint256)": {
        "details": "See {IERC721-ownerOf}."
      },
      "renounceOwnership()": {
        "details": "Leaves the contract without owner. It will not be possible to call `onlyOwner` functions. Can only be called by the current owner. NOTE: Renouncing ownership will leave the contract without an owner, thereby disabling any functionality that is only available to the owner."
      },
      "safeTransferFrom(address,address,uint256)": {
        "details": "See {IERC721-safeTransferFrom}."
      },
      "safeTransferFrom(address,address,uint256,bytes)": {
        "details": "See {IERC721-safeTransferFrom}."
      },
      "setApprovalForAll(address,bool)": {
        "details": "See {IERC721-setApprovalForAll}."
      },
      "symbol()": {
        "details": "See {IERC721Metadata-symbol}."
      },
      "transferFrom(address,address,uint256)": {
        "details": "See {IERC721-transferFrom}."
      },
      "transferOwnership(address)": {
        "details": "Transfers ownership of the contract to a new account (`newOwner`). Can only be called by the current owner."
      }
    },
    "version": 1
  },
  "userdoc": {
    "kind": "user",
    "methods": {},
    "version": 1
  }
}